:020000040800F2
:10000000E80A0020D5010008C51C0008C91B00082B
:10001000C11C00089F0600089D2100080000000088
:10002000000000000000000000000000011E0008A9
:10003000A306000800000000D51D0008031E0008EC
:10004000EF010008EF010008EF010008EF010008D0
:10005000EF010008EF010008EF010008EF010008C0
:10006000EF010008EF010008EF010008EF010008B0
:10007000EF010008EF010008EF010008EF010008A0
:10008000EF010008EF010008EF010008EF01000890
:10009000EF010008EF010008EF010008EF01000880
:1000A000EF010008EF010008EF010008EF01000870
:1000B000EF010008EF010008EF010008EF01000860
:1000C000EF010008EF010008EF010008EF01000850
:1000D000EF010008C9200008D92000088D21000880
:1000E000EF010008EF010008EF010008EF01000830
:1000F000EF010008EF010008EF010008EF01000820
:10010000EF010008EF010008EF010008EF0100080F
:10011000EF010008EF010008EF010008EF010008FF
:10012000EF010008EF010008EF010008EF010008EF
:1001300000F002F800F03FF80AA090E8000C8244BA
:100140008344AAF10107DA4501D100F034F8AFF297
:10015000090EBAE80F0013F0010F18BFFB1A43F0A5
:1001600001031847E828000008290000103A24BFBE
:1001700078C878C1FAD8520724BF30C830C144BF0C
:1001800004680C607047000000230024002500264E
:10019000103A28BF78C1FBD8520728BF30C148BFEA
:1001A0000B607047642900F09180002070471FB5F4
:1001B0001FBD10B510BD00F01BFA1146FFF7F7FF89
:1001C00002F0B2F800F039FA03B4FFF7F2FF03BC13
:1001D00002F002F80948804709480047FEE7FEE7B9
:1001E000FEE7FEE7FEE7FEE7FEE7FEE7FEE7FEE7E7
:1001F00004480549054A064B704700000B1E0008DD
:1002000031010008E8040020E80A0020E806002088
:10021000E8060020704700000FB4044910B503AA97
:10022000029800F09DF910BC5DF814FB0C00002052
:100230000FB41CB50C0007AA009001D02044401E4A
:10024000074B7B4469460190069800F068F9002C42
:1002500003D06946002000F075F91CBC5DF814FB62
:10026000090300002DE9F0410E46044600202062FB
:100270002046E168884730B3252805D0D4E901211C
:100280009047206A401CF2E7E16820460027884733
:10029000050018D0A5F14100192802D820354FF4E7
:1002A00000673246294620462760FFF77BFF40B1B2
:1002B000012804D0F61D26F007060836D8E7361DBB
:1002C000D6E72846DAE7206ABDE8F0812DE9F0415B
:1002D0000646002410687529314616A510D0AFF3E4
:1002E0000080002802DA404213A507E031688A073F
:1002F00001D512A502E0490704D511A5012401E0AA
:10030000AFF3008000210A2206F1240709E0B0FBC8
:10031000F2FCB0FBF2F302FB1C00303078541846BC
:10032000491C0028F3D123462A463046BDE8F04157
:1003300000F097B8000000002D0000002B00000026
:100340002000000010B5431C02E010F8011B71B141
:100350008107FAD14FF0013202C88C1A8C4314EA9B
:10036000C211F9D0C01A0A0603D0C01E10BDC01AAF
:1003700010BD0A0401D0801E10BD0902FCD0401E31
:1003800010BD032A40F2308010F0030C00F01580FD
:1003900011F8013BBCF1020F624498BF11F801CB88
:1003A00000F8013B38BF11F8013BA2F1040298BFED
:1003B00000F801CB38BF00F8013B11F0030300F057
:1003C000E180083AC0F0088051F8043B083A51F83F
:1003D00004CBA0E80810F5E7121D5CBF51F8043B00
:1003E00040F8043BAFF30080D20724BF11F8013B73
:1003F00011F801CB48BF11F8012B24BF00F8013BD5
:1004000000F801CB48BF00F8012B70474FF0000205
:1004100000B5134694469646203922BFA0E80C50FA
:10042000A0E80C50B1F12001BFF4F7AF090728BFD5
:10043000A0E80C5048BF0CC05DF804EB890028BF51
:1004400040F8042B08BF704748BF20F8022B11F07A
:10045000804F18BF00F8012B7047704770477047F6
:1004600070472DE9F0470D4699469246044600F143
:1004700024080168880604D5E06921F01001216094
:1004800000E00120A84201DD471B00E00027A16930
:100490007A1902EB0900081AA0612078C00602D47C
:1004A0002046AFF30080002608E0D4E901211AF8C5
:1004B00006009047206A401C761C20624E45F4DB03
:1004C0002078C0060AD52046AFF3008006E0D4E9C4
:1004D000012130209047206A401C2062381EA7F17D
:1004E0000107F4DC07E0D4E9012118F80500904782
:1004F000206A401C2062281EA5F10105F3DC20467D
:10050000AFF300802078000602D50220BDE8F08716
:100510000120FBE701694A1C02610878704700B5B9
:100520008FB0CDE901310021059105497944CDE92C
:10053000031011466846FFF795FE0FB000BD00009E
:10054000E5FFFFFF0A6802F8010B0A607047D1E976
:1005500000239A4202D2531C0B60107070470000B7
:10056000074B70B50D467B44FFF7D9FF044628467C
:1005700000F03AF810B14FF0FF3070BD204670BD6A
:10058000131D000010B5203AC0F00B80B1E81850E0
:10059000203AA0E81850B1E81850A0E81850BFF46D
:1005A000F5AF5FEA027C24BFB1E81850A0E818500C
:1005B00044BF18C918C0BDE810405FEA827C24BF60
:1005C00051F8043B40F8043B08BF7047D20728BFEE
:1005D00031F8023B48BF11F8012B28BF20F8023B3D
:1005E00048BF00F8012B7047007B00F08000704787
:1005F000754600F02BF8AE4605006946534620F0DC
:100600000700854618B020B5FFF7F2FDBDE8204091
:100610004FF000064FF000074FF000084FF0000BBE
:1006200021F00701AC46ACE8C009ACE8C009ACE871
:10063000C009ACE8C0098D46704710B50446AFF359
:1006400000802046BDE81040FFF7BEBD004870475F
:100650008404002070B5054600246888282264219F
:1006600001F078FF2044C4B2E8881922232101F068
:1006700071FF2044C4B228890F22322101F06AFFA1
:100680002044C4B2A88814224FF4967101F062FF8E
:100690002044C4B2642C00DD6424204670BD00BF39
:1006A000FEE7704770B58CB005460024E888ADF8C9
:1006B00000002889ADF80200A888ADF80400688819
:1006C000ADF806002049286902F072F8064602F0EB
:1006D0001FF800B2ADF808001B49A86902F068F8DD
:1006E000064602F031F880B2ADF80A002846FFF75E
:1006F000B1FF8DF80C00AA222146641C04A84254C4
:1007000002222146641C42540D222146641C42549C
:1007100004A908196946FFF734FE0D34002221466A
:10072000641C04A842540D222146641C42540A222F
:100730002146641C42544FF47A73224604A90348AC
:1007400001F0D8F90CB070BD000020414401002038
:1007500038B5044608A000680090012C01D10120A2
:1007600000E000208DF801004FF47A7304226946FE
:10077000024801F0BFF938BD33000D0A44010020E2
:1007800010B504460C480078844200D110BD0A48D8
:100790000470012C05D101F013FB012001F0AEFA29
:1007A00004E001F003FB002001F0A8FA2046FFF767
:1007B000CFFF00BFEAE700000000002070B504464C
:1007C000002594F82100022803D00420A06301250D
:1007D000C1E02068006820F00E00216808602068F1
:1007E000006820F00100216808605C4920688842A8
:1007F00052D95A4978392068884201D1012047E00E
:10080000564964392068884201D1102040E053499C
:1008100050392068884201D1801539E04F493C3970
:100820002068884201D1801432E04C492839206880
:10083000884202D14FF480302AE0484914392068B8
:10084000884202D14FF4801022E044492068884257
:1008500001D140041CE042492068884201D10120B6
:1008600016E03F4914312068884201D110200FE082
:100870003B4928312068884201D1801508E0384979
:100880003C312068884201D1801401E04FF480306F
:100890003349091F086051E030497839206888429F
:1008A00001D1012047E02D4964392068884201D1F7
:1008B000102040E0294950392068884201D1801534
:1008C00039E026493C392068884201D1801432E061
:1008D000224928392068884202D14FF480302AE02A
:1008E0001E4914392068884202D14FF4801022E05A
:1008F0001A492068884201D140041CE01849206848
:10090000884201D1012016E015491431206888423F
:1009100001D110200FE0124928312068884201D10E
:10092000801508E00E493C312068884201D18014CE
:1009300001E04FF48030094980394860012084F893
:10094000210000BF002084F8200000BF606B10B1C0
:100950002046616B8847284670BD00008000024039
:10096000080402402DE9F847024600239C467BE13B
:100970004FF0010808FA03F4D1F8008008EA0400F7
:10098000A0427DD1DFF8F4A2D1F80480A8EB0A09D7
:10099000D0453AD014DCB8F1030F50D009DCB8F1DF
:1009A000000F31D0B8F1010F1CD0B8F1020F49D1BE
:1009B00020E0B8F1110F18D0B8F1120F42D11EE0AB
:1009C000B9F5881F25D006DCB9F5803F20D0B9F5F0
:1009D000801F37D11AE0B9F5001F18D0B9F5041FF0
:1009E00030D117E0D1F80CC02DE0D1F80C8008F11F
:1009F000040C28E0D1F80C8008F1080C23E0D1F8B1
:100A00000C8008F10C0C1EE000BF00BF00BF00BF4F
:100A100000BF00BFD1F80880B8F1000F02D14FF03D
:100A2000040C0BE0D1F80880B8F1010F03D14FF0AE
:100A3000080C146102E04FF0080C546103E04FF021
:100A4000000C00E000BF00BFFF2801D8904601E085
:100A500002F104084646FF2802D84FEA830803E063
:100A6000A3F108084FEA88084746D6F800804FF0FF
:100A70000F0909FA07F928EA09080CFA07F900E052
:100A80007AE048EA0908C6F80080D1F8048008F046
:100A90008058B8F1805F6FD100BFDFF8E481D8F8EB
:100AA000188048F00108DFF8D891C9F81880C846C6
:100AB000D8F8188008F00108CDF8008000BF00BF0A
:100AC0004FEAB9384FEA930958F829504FEA83782A
:100AD0004FEA18794FF00F0808FA09F825EA0805D7
:100AE000DFF8A081424502D14FF0000824E0DFF892
:100AF0009881424502D14FF001081DE0DFF88C815A
:100B0000424502D14FF0020816E0DFF884814245E9
:100B100002D14FF003080FE0DFF87881424502D19F
:100B20004FF0040808E0DFF87081424502D14FF031
:100B3000050801E04FF006084FEA83794FEA19797A
:100B400008FA09F848EA0505DFF850814FEA9309E9
:100B500048F82950D1F8048008F48038B8F5803F6F
:100B60000BD1DFF83C81D8F8008048EA0008DFF8B4
:100B70003091C9F800800AE075E0DFF82481D8F8E8
:100B8000008028EA0008DFF81891C9F80080D1F841
:100B9000048008F40038B8F5003F0ED1DFF800817A
:100BA00008F10408D8F8008048EA0008DFF8F0905F
:100BB00009F10409C9F800800DE0DFF8E48008F1CC
:100BC0000408D8F8008028EA0008DFF8D49009F17A
:100BD0000409C9F80080D1F8048008F48018B8F539
:100BE000801F0ED1DFF8B88008F10808D8F800801F
:100BF00048EA0008DFF8A89009F10809C9F8008060
:100C00000DE0DFF89C8008F10808D8F8008028EA99
:100C10000008DFF88C9009F10809C9F80080D1F8C4
:100C2000048008F40018B8F5001F0ED1DFF87080BA
:100C300008F10C08D8F8008048EA0008DFF8609056
:100C400009F10C09C9F800800DE0DFF8548008F1C3
:100C50000C08D8F8008028EA0008DFF8449009F171
:100C60000C09C9F800805B1CD1F8008028FA03F851
:100C7000B8F1000F7FF47CAEBDE8F88700001110DA
:100C80000010024000080140000C0140001001402B
:100C90000014014000180140001C01400800014000
:100CA000000401400AB1016101E00B0403617047D7
:100CB00001480068704700002800002003480068D1
:100CC000034909780844014908607047280000205A
:100CD0003000002010B50848006840F010000649B8
:100CE0000860052000F080F80F2000F007F800F001
:100CF0002BF8002010BD00000020024070B5044613
:100D00000E4800784FF47A71B1FBF0F00C49096895
:100D1000B1FBF0F5284600F0E3FB08B1012070BDFF
:100D2000102C07D200222146501E00F01EF8054864
:100D3000046001E00120F2E70020F0E7300000202D
:100D4000040000202C0000207047014608460028BF
:100D500009DB00F01F0301229A4043099B0003F1C5
:100D6000E023C3F8002100BF70472DE9F05F804603
:100D70000D461646002701F013FA074639462A4663
:100D8000334601F00700C0F1070ABAF1040F02D997
:100D90004FF0040A01E0C0F1070AD14600F1040A4D
:100DA000BAF1070F02D24FF0000A01E0A0F1030AE6
:100DB000D4464FF0010A0AFA09FAAAF1010A0AEA2E
:100DC000020A0AFA0CFA4FF0010B0BFA0CFBABF11A
:100DD000010B0BEA030B4AEA0B042146404601F0E3
:100DE000E7F9BDE8F09F000000BF00F00702064BE6
:100DF00019684FF6FF031940044B0B4343EA0221E5
:100E0000014B196000BF70470CED00E00000FA05CF
:100E100070B504460D460CB9012070BD5A480068F3
:100E200000F00700A8420ED25748006820F00700E3
:100E30002843554908600846006800F00700A842AA
:100E400001D00120E9E7207800F0020002281DD13E
:100E5000207800F00400042805D14C48406840F494
:100E6000E0604A494860207800F00800082805D171
:100E70004648406840F460504449486043484068F0
:100E800020F0F000A168084340494860207800F055
:100E9000010078B36068012806D13C48006800F47E
:100EA000003090B90120B8E76068022806D13748C1
:100EB000006800F0007040B90120AEE733480068D8
:100EC00000F0020008B90120A7E73048406820F090
:100ED0000300616808432D494860FFF7E9FE0646B4
:100EE00009E0FFF7E5FE801B41F28831884202D914
:100EF000032092E707E02548406800F00C00616895
:100F0000B0EB810FEDD12048006800F00700A84247
:100F10000ED91D48006820F0070028431A490860D0
:100F20000846006800F00700A84201D0012074E7DD
:100F3000207800F00400042807D11448406820F409
:100F4000E060E168084311494860207800F008003B
:100F5000082808D10D48406820F46050216940EA13
:100F6000C1000A49486000F03FF808494968C1F3E8
:100F70000311074A515CC8400649086006480068EA
:100F8000FFF7BCFE002048E70020024000100240AE
:100F9000322A0008040000202C00002001480068CC
:100FA000704700000400002000B5FFF7F7FF044978
:100FB0004968C1F30221034A515CC84000BD0000EA
:100FC00000100240422A000800B5FFF7E7FF04497D
:100FD0004968C1F3C221034A515CC84000BD00000A
:100FE00000100240422A0008F0B585B00FF26C0CE8
:100FF0009CE8E01001A8A0E8E0101CA52D68009571
:1010000000210022002300240020194D696801F00E
:101010000C05F5B1042D02D0082D19D101E01548B9
:1010200019E001ADC1F38346AC5D01F4803555B1E3
:101030000F4D6D68C5F340451DF805200D4D654306
:10104000B5FBF2F302E00C4D04FB05F3184602E099
:1010500000BF084800BF00BF05B0F0BD0203040593
:10106000060708090A0B0C0D0E0F101001020000F4
:101070000010024000127A0000093D00F8B5044655
:101080000CB90120F8BD207800F00100002878D0CC
:10109000F848406800F00C0004280CD0F54840687F
:1010A00000F00C00082811D1F248406800F48030AC
:1010B000B0F5803F0AD1EF48006800F40030002806
:1010C0005FD0606800285CD10120DBE700BF60686A
:1010D000B0F5803F06D1E748006840F48030E5492C
:1010E000086028E0606858B9E248006820F4803061
:1010F000E04908600846006820F4802008601AE093
:101100006068B0F5A02F0BD1DA48006840F4802069
:10111000D84908600846006840F4803008600AE05A
:10112000D448006820F48030D2490860084600683E
:1011300020F48020086000BF606888B1FFF7B8FD28
:10114000054606E0FFF7B4FD401B642801D90320E3
:1011500098E7C848006800F400300028F2D010E09A
:10116000FFF7A6FD054606E0FFF7A2FD401B642839
:1011700001D9032086E7BF48006800F4003000284A
:10118000F2D1207800F00200022857D1B948406817
:1011900000F00C0050B1B748406800F00C0008287F
:1011A00018D1B448406800F4803098B9B14800685C
:1011B00000F0020020B12069012801D0012061E780
:1011C000AC48006820F0F800616940EAC100A94914
:1011D000086033E02069E8B10120A7490860FFF703
:1011E00067FD054606E0FFF763FD401B022801D9B5
:1011F000032047E79F48006800F002000028F2D073
:101200009C48006820F0F800616940EAC1009949F3
:10121000086013E0002098490860FFF749FD054683
:1012200006E0FFF745FD401B022801D9032029E70E
:101230009048006800F002000028F2D1207800F009
:10124000080008282DD1A069B8B101208B49086099
:10125000FFF72EFD054606E0FFF72AFD401B02289A
:1012600001D903200EE78348406A00F002000028FD
:10127000F2D0012000F0B0FD13E000207F490860AB
:10128000FFF716FD054606E0FFF712FD401B02289A
:1012900001D90320F6E67748406A00F002000028F2
:1012A000F2D1207800F00400042873D1002771489F
:1012B000C06900F0805070B900BF6E48C06940F04E
:1012C00080506C49C8610846C06900F080500090A9
:1012D00000BF00BF01276A48006800F48070B0B901
:1012E0006748006840F4807065490860FFF7E0FCDB
:1012F000054606E0FFF7DCFC401B642801D903200B
:10130000C0E65F48006800F480700028F2D000BF9B
:10131000E068012806D15748006A40F001005549AD
:10132000086227E0E06858B95248006A20F00100DE
:10133000504908620846006A20F00400086219E07B
:10134000E06805280BD14B48006A40F00400494989
:1013500008620846006A40F0010008620AE0454859
:10136000006A20F00100434908620846006A20F044
:101370000400086200BFE068A0B1FFF799FC0546D1
:1013800009E0FFF795FC401B41F28831884202D901
:10139000032077E622E03748006A00F002000028C8
:1013A000EFD012E0FFF784FC054608E0FFF780FC71
:1013B000401B41F28831884201D9032062E62D4862
:1013C000006A00F002000028F0D1012F05D1294861
:1013D000C06920F080502749C86100BFE069C8B3E8
:1013E0002448406800F00C00082860D0E06902281A
:1013F00048D1002020490866FFF75AFC054606E060
:10140000FFF756FC401B022801D903203AE6194891
:10141000006800F000700028F2D1206AB0F5803F2B
:1014200007D11448406820F40030A16808431149EE
:101430004860D4E9080108430E49496821F4741151
:1014400008430C49486001200B490866FFF730FC4F
:10145000054607E03DE0FFF72BFC401B022801D9C1
:1014600003200FE60348006800F000700028F2D067
:101470002FE000000010024000004242800442427F
:1014800000700040002014490866FFF711FC054673
:1014900006E0FFF70DFC401B022801D90320F1E50F
:1014A0000E48006800F000700028F2D111E0E069F9
:1014B000012800D1E6E50948466806F48031206A33
:1014C000814204D106F47011606A814201D001208A
:1014D000D8E50020D6E5000000004242001002409E
:1014E00070B504462546681EB0F1807F01D3012007
:1014F0000FE0681E4FF0E02148610F214FF0FF30F0
:1015000000F056FE00204FF0E021886107200861BE
:10151000002070BD704700002DE9F04704462068A8
:1015200005682068C668206847694FF00008C14612
:1015300005F00F08B8F1000F0AD105F0200038B10E
:1015400006F0200020B1204600F08AFCBDE8F087BC
:10155000B8F1000F71D007F0010018B906F49070CF
:1015600000286AD005F0010030B106F4807018B18F
:10157000E06B40F00100E06305F0040030B107F0DB
:10158000010018B1E06B40F00200E06305F00200DA
:1015900030B107F0010018B1E06B40F00400E063E7
:1015A00005F0080048B106F0200010B907F001006E
:1015B00018B1E06B40F00800E063E06B68B305F041
:1015C000200028B106F0200010B1204600F048FCB1
:1015D00020684069C0F38019E06B00F0080010B982
:1015E000B9F1000F22D0204600F01AFC20684069B3
:1015F00000F04000B0B12068406920F04000216850
:101600004861606B50B11848616B4863606BFFF7CD
:10161000D5F810B1606B416B88470CE02046FFF7AE
:1016200079FF08E02046FFF775FF04E02046FFF74A
:1016300071FF0020E06389E7FFE705F0800030B12B
:1016400006F0800018B1204600F0D8FC7EE705F0D7
:10165000400030B106F0400018B1204600F0F0FB29
:1016600074E700BF72E700000D1E000810B50446C5
:101670000CB9012010BDA06900B100E000BF94F8D2
:10168000390028B9002084F83800204600F028F8F6
:10169000242084F839002068C06820F400502168B4
:1016A000C860204600F02CFC2068006920F49040BF
:1016B000216808612068406920F02A00216848619B
:1016C0002068C06840F400502168C8600020E063D2
:1016D000202084F8390084F83A000020CAE700008E
:1016E00010B586B0044600BF7E48806940F0010016
:1016F0007C4988610846806900F00100019000BFC4
:1017000000BF7949206888424BD100BF00BF7548AF
:10171000806940F00400734988610846806900F0E0
:101720000400019000BF00BF00BF00BF00BF08461B
:10173000806940F0040088610846806900F0040078
:10174000019000BF00BF00BF00BF00BF0846806916
:1017500040F4804088610846806900F48040019030
:1017600000BF00BF00BF4815029002200390012077
:1017700004900320059002A95C48FFF7F3F84FF4AA
:10178000806002900020039002A95848FFF7EAF811
:10179000032211462520FFF7E8FA2520FFF7D5FAA6
:1017A0009DE05349206888424AD100BF00BF4D48A0
:1017B000806940F004004B4988610846806900F068
:1017C0000400019000BF00BF00BF00BF00BF08467B
:1017D000806940F0040088610846806900F00400D8
:1017E000019000BF00BF00BF00BF00BF0846C06936
:1017F00040F40030C8610846C06900F40030019030
:1018000000BF00BF00BF042002900220039001200F
:1018100004900320059002A93448FFF7A3F808209C
:1018200002900020039002A93048FFF79BF80322A2
:1018300011462620FFF799FA2620FFF786FA4EE098
:101840002C49206888424AD100BF00BF25488069E2
:1018500040F00800234988610846806900F00800CC
:10186000019000BF00BF00BF00BF00BF08468069F5
:1018700040F0080088610846806900F00800019087
:1018800000BF00BF00BF00BF00BF0846C06940F4F2
:101890008020C8610846C06900F48020019000BF24
:1018A00000BF00BF081502900220039001200490A1
:1018B0000320059002A91048FFF754F84FF4006088
:1018C00002900020039002A90B48FFF74BF8032277
:1018D00011462720FFF749FA2720FFF736FA06B00E
:1018E00010BD000000100240003801400008014017
:1018F0000044004000480040000C014010B5034681
:1019000093F83A0020282FD101B10AB9012010BD67
:1019100000BF93F83800012801D10220F7E7012029
:1019200083F8380000BF99629A85DA850020D86371
:10193000222083F83A0000BF002083F8380000BF5F
:101940001868C06840F480701C68E06018684069DE
:1019500040F001001C6860611868C06840F0200019
:101960001C68E0600020D2E70220D0E770B5044692
:101970004B49206888422AD14A4801784A4802885F
:101980000088401C484B18804848815418460088FD
:10199000802802D300201946088043480088022886
:1019A0000FDB41480088801E4049085C0D2808D1A3
:1019B0003D480088401E085C0A2802D101203C49AD
:1019C0000870012237493B48FFF798FF67E03A4922
:1019D000206888422AD1394801783948028800882D
:1019E000401C374B1880374881541846008880289F
:1019F00002D30020194608803148008802280FDBF6
:101A00002F480088801E2F49085C0D2808D12C48DB
:101A10000088401E085C0A2802D101202A4908706B
:101A2000012226492948FFF769FF38E02849206844
:101A3000884234D1FFF73CF905462648007838B192
:101A400025480068281A322802D900202149087048
:101A500021480560214801781E4802780078401C22
:101A60001C4B18701E48815418460078112810DB52
:101A70000020194608701A4800F0A8F848B1012063
:101A800018490870FFF714F9174908600120174931
:101A90000870012211491648FFF730FF00BF70BDE2
:101AA000003801401B0000201C00002054030020CF
:101AB0001E00002004010020004400401F00002000
:101AC00020000020D4030020220000204401002038
:101AD0000048004023000020240000201A000020BD
:101AE0008C02002039000020340000203800002043
:101AF0004C0200202DE9F84F04460E461746994641
:101B00004FF0000A94F8390020285AD106B117B9CD
:101B10000120BDE8F88F00BF94F83800012801D1FA
:101B20000220F6E7012084F8380000BF0020E063BF
:101B3000212084F83900FFF7BBF88246A784E784A8
:101B4000A068B0F5805F04D1206910B90025B046C7
:101B500002E035464FF0000800BF002084F838004E
:101B600000BF1BE05346002280212046CDF80090A4
:101B700000F074FA08B10320CBE745B9B8F80000CB
:101B8000C0F308002168486008F1020803E02878E3
:101B9000216848606D1CE08C401EE084E08C0028C9
:101BA000E0D15346002240212046CDF8009000F0BD
:101BB00055FA08B10320ACE7202084F83900002052
:101BC000A7E70220A5E7704700BFFEE72DE9F04731
:101BD0000446002620783C2802D16078022802D0F2
:101BE0000020BDE8F087002504E0605D3044C6B207
:101BF000681CC5B2102DF8DB207CB04201D000205B
:101C0000EFE7E078A17840EA01202B49088060796D
:101C1000217940EA012028494880E079A17940EA09
:101C2000012025498880607A217A40EA01202249F2
:101C3000C880E07AA17A40EA01201F490881207B10
:101C4000C0098872207B00F07F00C872607B087337
:101C5000087B00F099FD8146184900F0A9FD074670
:101C60001549C87A00F090FD8046394600F0EEFC38
:101C7000114908610846807A20B10846006980F061
:101C800000400861A07B0C490875E07B4875487DE1
:101C900000F07AFD8146094900F08AFD07460649B1
:101CA000087D00F071FD8046394600F0CFFC024906
:101CB0008861012095E7000054040020CDCCCC3D84
:101CC00000BFFEE770470000F8B505460C460AA0C5
:101CD000006800902046FEF735FB86B2642332464A
:101CE00021462846FFF706FF64230322694628465B
:101CF000FFF700FFF8BD0000FFFFFF0010B586B042
:101D000004460CA207CA03AB07C30DA207CA8DE89D
:101D1000070034B164230C2203A90C48FFF7EAFE44
:101D200005E064230C2269460848FFF7E3FE06B08D
:101D300010BD00006274302E76616C3D31FFFFFFF4
:101D40006274302E76616C3D30FFFFFF040100208D
:101D500000B585B00020019002900390049000BF70
:101D60001048806940F004000E4988610846806987
:101D700000F00400009000BF00BF88140190012013
:101D80000290002003900320049001A90648FEF76A
:101D9000E9FD00224FF480510348FEF783FF05B0B0
:101DA00000BD0000001002400008014010B50022F4
:101DB0004FF480510148FEF775FF10BD0008014047
:101DC00010B5012211030248FEF76CFF10BD0000A0
:101DD000000801407047000008B508490968C908B3
:101DE0004FF47A72B1FBF2F14143009100BF00BFA2
:101DF00000994A1E00920029F9D108BD0400002074
:101E0000704710B5FEF75AFF10BD704770B5054614
:101E10006C6A0020E085E0842046FFF77BFB70BD04
:101E20000168C96821F490710268D160016849694C
:101E300021F0010102685161202180F83A107047B9
:101E400010B504462068C06820F040002168C860D2
:101E5000202084F839002046FFF7B5FE002010BD91
:101E600070B5044694F83A00222847D1A068B0F52E
:101E7000805F0CD1206950B90025A66A20684068AF
:101E8000C0F308003080A06A801CA06215E0A56A3B
:101E90000026A068B0F5805F03D0A06828B920694B
:101EA00018B920684068287004E02068406800F095
:101EB0007F002870A06A401CA062E08D401E80B2A6
:101EC000E085C8B92068C06820F020002168C8609B
:101ED0002068C06820F480702168C860206840696C
:101EE00020F0010021684861202084F83A00204653
:101EF000FFF73CFD002070BD0020FCE70220FAE760
:101F000070B504462168096921F44051E268114323
:101F1000226811612269A1681143626941EA0205E0
:101F20002168C96841F20C62914329432268D1605B
:101F30002168496921F44071A26911432268516105
:101F40002D4A2168914202D1FFF73EF801E0FFF7E8
:101F50002BF800EBC00101EB001162689200B1FBAD
:101F6000F2F100EBC00202EB001263689B00B2FBCF
:101F7000F3F26423B2FBF3F202EBC20303EB0212AF
:101F8000A1EB8201322202EB01116422B1FBF2F1DA
:101F900001F0F00100EBC00202EB001263689B004D
:101FA000B2FBF3F26423B2FBF3F201EB021200EB9B
:101FB000C00101EB001163689B00B1FBF3F100EB82
:101FC000C00303EB00136668B600B3FBF6F36426A8
:101FD000B3FBF6F303EBC30606EB0313A1EB83019C
:101FE000322303EB01116423B1FBF3F101F00F0184
:101FF00011442268916070BD00380140014691F89B
:102000003900212828D18868B0F5805F0BD1086994
:1020100048B90A6A1088C0F308000B685860086A5B
:10202000801C086205E00B6A581C086218780B686F
:102030005860C88C401E80B2C88458B90868C0680F
:1020400020F080000B68D8600868C06840F040004D
:102050000B68D860002070470220FCE72DE9F041B2
:1020600004460D4617469846069E21E0701CF8B1BE
:102070002EB1FEF71DFEA0EB0800B04218D9206873
:10208000C06820F4D0702168C8602068406920F0E2
:10209000010021684861202084F8390084F83A0062
:1020A00000BF002084F8380000BF0320BDE8F081A5
:1020B000206800682840A84201D1012000E00020EB
:1020C000B842D3D00020F1E710B50248FFF724FA58
:1020D00010BD00000401002010B50248FFF71CFAF3
:1020E00010BD00004401002070B52348007800B9FD
:1020F00070BD002020490870002533E01F48445D72
:102100001F48007830B101280AD002280ED00328D9
:1021100025D115E0332C02D10120194908701EE0A9
:102120001848047002201649087018E00D2C03D1DD
:1021300003201349087002E00020114908700EE0E6
:102140000A2C08D10F49097809B1012100E00021CA
:102150000846FEF715FB00200949087000BF00BFC4
:10216000681C85B2084800888542C7DB0020064904
:10217000088000BFBCE7000022000020D40300203C
:1021800001000020020000202000002010B50248BD
:10219000FFF7C2F910BD00004C02002000BFFEE7AF
:1021A00002480068C0F30220704700000CED00E018
:1021B00010B5002804DB0A07130E054A135406E085
:1021C0000A07140E034A00F00F031B1FD45410BD5E
:1021D00000E400E018ED00E000BF7047014908602E
:1021E000704700000800002010B504464FF47A71D3
:1021F00004FB01F000F002F810BD000070B50346CA
:1022000000224FF0E02675690D4E366803FB06F498
:102210004FF0E026B16910E04FF0E026B069884247
:102220000BD0884202D20E1A324402E02E1A0E441B
:1022300032440146A24200D300E0EDE700BF70BD8A
:102240000800002010B5044609480A4908600846FD
:10225000446000218160C160016181610C214161A4
:10226000FFF704FA012204490248FFF747FB10BDBB
:1022700000440040440100201F00002000BF054A28
:10228000126802F04002002AF9D0C2B2014B1B1DB5
:102290001A6070470038014000B585B000BF00BF2C
:1022A0001E48806940F008001C4988610846806922
:1022B00000F00800009000BF00BF00BF00BF00BFDB
:1022C0000846806940F0400088610846806900F057
:1022D0004000009000BF00BF00BF202001900120FF
:1022E000029003900320049001A90D48FEF73AFBE9
:1022F0002020019001A90B48FEF734FB00BF01220A
:1023000020210748FEF7CEFC00BF00BF012220219C
:102310000448FEF7C7FC00BF05B000BD0010024036
:10232000000C01400018014088B0FEF7D3FC4FF4C8
:10233000E01000F020F94820FFF750FF4FF4E130A3
:1023400000F068F94FF4E130FFF77CFF4FF41650CE
:1023500000F044F9FFF7FCFCFFF79EFF5CA0FDF7DF
:102360005BFFB3E0FFF7C0FE5E48007858B3002083
:102370005C49087000241DE05B48005D332817D1DC
:102380005949A01C085C0D2812D1E01C085C0A28E1
:102390000ED1601C085C012802D1FEF7F1F906E0BD
:1023A0005149601C085C10B90020FEF7E9F906E00D
:1023B000601C84B2E01C4D4909888842DCDB00BF08
:1023C00000204A4908804A48007800287BD0002035
:1023D000474908704748FEF73DF905464548FEF76E
:1023E00061F91420FFF700FF42498869424900F073
:1023F000DFF9064600F0A8F984B223463FA2202167
:102400006846FDF715FF69463F48FFF75DFC3C2035
:10241000FFF7EAFE37490869374900F0C9F906466F
:1024200000F092F984B2234638A220216846FDF7D5
:10243000FFFE69463448FFF747FC3C20FFF7D4FE17
:102440002C48438834A220216846FDF7F1FE6946F6
:102450002D48FFF739FC3C20FFF7C6FE254883884E
:1024600030A220216846FDF7E3FE69462648FFF7C3
:102470002BFC3C20FFF7B8FE1E48C3882CA220216D
:102480006846FDF7D5FE69461F48FFF71DFC3C2056
:10249000FFF7AAFE1748038928A220216846FDF706
:1024A000C7FE69461848FFF70FFC3C20FFF79CFE6B
:1024B0002B4625A220216846FDF7BAFE6946124840
:1024C000FFF702FC00BF0A20FFF78EFE4AE700007C
:1024D00053797374656D20496E6974204F4B0D0AF2
:1024E000000000001E000020540300201C000020FB
:1024F00039000020540400200000204178302E765E
:10250000616C3D25640000000401002078312E76C6
:10251000616C3D25640000006E312E76616C3D25B6
:10252000640000006E332E76616C3D25640000006F
:102530006E342E76616C3D25640000006E352E767B
:10254000616C3D25640000006E362E76616C3D2581
:102550006400000003468B4201DC10467047B3EB79
:10256000410F01DB0020F9E7C3EB4100504390FB32
:10257000F1F0C0B2F2E730B58FB005460124282152
:1025800005A8FDF743FF14216846FDF73FFF012032
:102590000590000406900020079002200C90C103D3
:1025A0000D910E9505A8FEF769FD04460CB100BF1C
:1025B000FEE70F20009002200190002002904FF4CF
:1025C000806003900020049002216846FEF720FC02
:1025D00004460CB100BFFEE70FB030BD10B5044695
:1025E00009480A4908600846446000218160C160CA
:1025F000016181610C214161FFF738F80122044932
:102600000248FFF77BF910BD004800404C02002053
:102610001A00002010B5044609480A490860084617
:10262000446000218160C160016181610C214161D0
:10263000FFF71CF8012204490248FFF75FF910BDBB
:1026400000380140040100201B00002090EA010F27
:1026500048BF81F0004100F17E81421A3CBF801AE0
:1026600089184FEAD0524FF07F4C1CEA410FA2EB81
:10267000D15318BF9CEA026F00F03B804FF0004C32
:102680004CEA00204CEA012121FA03FC10EB0C0C6F
:102690001ED202F1FF325FEA1C2040EBC25038BF6D
:1026A00070471CF07F0F4FEA400C18BFBCF17F4F02
:1026B00038BF7047C3F12003994008BF20F00100E4
:1026C000BCF17F4F38BF7047A0F1C04000F037B970
:1026D0004FEA3C00000A40EBC25028BF1CF0FF0F3D
:1026E0004FEA400CE6D018BFBCF17F4F38BF7047AF
:1026F000EAE79CEA026F05D010EA5C0F08BF00F021
:102700000040704710B500F0D4F800BF64FBBE3E37
:1027100041000B0ED3F19E0208D950F400034FEA9A
:10272000032323FA02F048BF4042704710B500F07F
:10273000C0F800BF49922480002070476FF000422B
:1027400082EA200070470000C10DD1F19E0206DB35
:102750004FEA002343F0004323FA02F0704700429F
:1027600007D54FEA4001B1F1FE4F02D24FF0000011
:10277000704710B500F09DF8499224800020704702
:102780006FEA200070470000B0FA80F310FA03F2FD
:10279000C3F19D030AD0D90501EB1220530638BFBF
:1027A000704700F1010008BF20F0010070470000F1
:1027B0004FF47F0C1CEAD0121EBF1CEAD11392EA20
:1027C0000C0F93EA0C0F00F0478090EA010F48BF0E
:1027D00042F480724FF0004C4CEA00204CEA012198
:1027E00002EB0302A0FB0113A2F50002002918BFAF
:1027F00043F001035B0028BF4FEA330342EB224260
:102800005FEA132C4CEBC2502EBFBCEB436FB2F50A
:102810007C0F70474FEA036CBCF1004F08BF20F0FB
:102820000100B2F57C0F38BF70470BD582F0FF0274
:1028300012F5803FC8BF704700F1C040D8BF00F01C
:102840000040704700F5000C5FEA4C0C48BF704731
:10285000B0F1C04000F073B890EA010F0CEAD11358
:1028600048BF42F48072624538BF634504D280EAB3
:10287000010000F00040704710B500F01AF800BFEA
:102880008900013E00F007B800F009B85FEA410C8A
:102890005FEA1C6C08D080EA010000F050B85FEAE3
:1028A000400C5FEA1C6CF6D14FF00040A0F58000B0
:1028B00070470EF1020E2EF0030E5EF8044B244218
:1028C00004D44FEA4102B2F17F4F11D84FEA4003DE
:1028D000B3F17F4F0CD80ED14FEAD07CB2F17F4FCD
:1028E0000CEB4C0C0CF1020C08BF4CEBD17C04E05F
:1028F0004FF0080C01E04FEAD17C0CEB4C0324FABA
:1029000003F404F00704B4F1040C06D20EEB840CBB
:10291000BDE810404CF0010C6047DFE80CF0070800
:1029200002024FF00040A0F5800010BD08464200B2
:1029300018BFD2F1807288BF00F0004010BDFF21A7
:1029400041EAD050C005704790EA010F48BF81F0BE
:1029500000413FF582AE421A04D882F00042A0EB5B
:10296000020011444FEAD0524FF07F4C1CEA410F55
:10297000A2EBD15318BF9CEA026F4AD04FF0004C33
:102980004CEA00204CEA012121FA03FCB0EB0C0CCC
:102990000FD412F0FE0F36D05FEA4C001DD50012A6
:1029A00040EBC25038BF70471CF03F0F18BF704754
:1029B0000BE0A2F101025FEA1C2040EBC25038BFDD
:1029C00070471CF07F0F18BF7047C3F12003994078
:1029D00014BF401E20F00100704780084FEA122308
:1029E00008BF7047B0FA80FCA2EB0C02CCF1280CB7
:1029F00060FA0CF093EA122F04BF00EBC25070474C
:102A00004FEAC3707047130A5FEADC1008BF7047D3
:102A1000F6E79CEA026F04D010EA5C0F08BF0020C2
:102A2000704710B5FFF745FF40DFF63E81F00040EC
:102A300070470000000000000000010203040607C8
:102A40000809000000000102030400006C2A0008CD
:102A5000000000203C0000006C010008A82A0008CB
:102A60003C000020AC0A00008801000800000000C3
:102A70000024F4000000000000000000000000003E
:102A80000000000000000000000000000000000046
:102A90000000000000000000100000000100000025
:082AA00000000000000000002E
:0400000508000131BD
:00000001FF
